:020000041000EA
:1000000000B5324B212058609868022188439860DF
:10001000D860186158612E4B002199600221596106
:100020000121F02299502B49196001219960352056
:1000300000F044F80222904214D00621196600F024
:1000400034F8196E01211966002018661A6600F04E
:100050002CF8196E196E196E052000F02FF8012189
:100060000842F9D1002199601B49196000215960AB
:100070001A491B48016001219960EB211966A021F2
:10008000196600F012F800219960164914480160C1
:100090000121996001BC002800D000471248134993
:1000A000086003C880F30888084703B5996A0420EC
:1000B0000142FBD001200142F8D103BD02B5186610
:1000C0001866FFF7F2FF186E186E02BD00000240BE
:1000D000000000180000070000035F00212200005C
:1000E000F4000018222000A00001001008ED00E03C
:1000F00000000000000000000000000074B24E7A12
:1001000000200420F7010010C3010010C5010010F9
:10011000C1010010C1010010C1010010C101001097
:10012000C1010010C1010010C1010010C701001081
:10013000C1010010C1010010C9010010CB01001065
:10014000CD010010CD010010CD010010CD01001037
:10015000CD010010CD010010CD010010CD01001027
:10016000CD010010CD010010CD010010CD01001017
:10017000CD010010CD010010CD010010CD01001007
:10018000CD010010CD010010CD010010CD010010F7
:10019000CD010010CD010010CD010010CD010010E7
:1001A000CD010010CD010010CD010010CD010010D7
:1001B000CD010010CD010010CD010010CD010010C7
:1001C00000BE00BE00BE00BE00BE00BEEFF3058054
:1001D000103800BEF2EB8871F0DA001014DB00106A
:1001E0003402001090A31AE700201F49086006C8D7
:1001F00081F3088810471D48006800282FD10DA4FE
:100200000ECC002902D000F012F8F9E71849194A7B
:10021000002000E001C19142FCD1174988471749ED
:1002200088471749884700BEFDE701C901C29A42C5
:10023000FBD3704714DB0010C0000020340A0020FC
:1002400088E40010000004200000042088E400106E
:10025000001004200010042000000000704709482E
:1002600003F01CF80047000008ED00E0000000D09B
:10027000380A00200C120020451A00105D030010FF
:100280006D1B00105756000006005250ABB3605370
:10029000C8CB001006005250861C0302D8CB0010B9
:1002A000060052505422A29DE4CB0010050052508B
:1002B000DE65F46888E40010F8B5C04606480749D2
:1002C000091A8B10C90FC91810B5491003D0044B77
:1002D000002B00D0984710BD340A0020340A0020BB
:1002E00000000000054B10B5002B03D00449054861
:1002F00000E000BFFFF7E2FF10BDC04600000000B5
:10030000B8110020E0C8001010B5024804F084F8CD
:1003100010BDC046E0C8001010B5C02004F002FDBA
:100320000C4A002302610C4A8361C266AC22C36599
:1003300003660367406183500200B8331032C25035
:10034000A8322C3BC25090228B3B83500432835402
:1003500010BDC04609030010F0C8001010B5002100
:10036000002005F03FFF10BD7047C046094B00B5A7
:100370001A68002389B006930593049303930293AC
:100380000193009300210133034805F05DFD09B09E
:1003900000BDC04624110020780B0020014B0360F3
:1003A00001207047780B002070B5FFF7B5FF020001
:1003B000002400250F4B983283601460556000259F
:1003C0000D4CDB6D9460D560203A1A600023B42296
:1003D000835001228363002380258262C36201234C
:1003E0000024064A2D065B420465456502624362AD
:1003F00070BDC046780B002000CA9A3B0000FFFF8A
:100400007047C046094A10B59446402483006344AF
:100410001A68C000624080341440802252011343A5
:100420001C60034B9C466044416010BD04C0014009
:1004300000400140024B18688007C00F7047C0465B
:1004400000C0064070B5EFF3108C72B60D4D2B68EE
:10045000002BFCD0BFF35F8F0724CB08C618C05C0D
:1004600001230C40A3401C000440034207D1184361
:100470003070BFF35F8F2C608CF3108870BD10005C
:1004800001F094FB2C0100D0F8B54746CE468846D3
:1004900080B5EFF3108C72B6214D2C68002CFCD087
:1004A000BFF35F8F9A422CD8D4080727055D061941
:1004B00001241740BC402C421FD007210127894648
:1004C00009E0D408055D06194C4639001440A140E6
:1004D0000C00294211D001329342F2D20120404255
:1004E000BFF35F8F00220E4B1A608CF31088002838
:1004F0000FDBC0BCB946B046F8BD254310003570CF
:10050000EEE7BFF35F8F00232B608CF31088012090
:1005100040424346002BECD0089801F047FBC04610
:100520002C0100D00021044B044ABFF35F8F02C3AB
:100530009342FAD17047C046000100D0800100D03C
:10054000044A1078431CDBB2172B00D91023137018
:100550007047C0468802002010B5064B064C82B09A
:100560000100009318221F232000FFF78DFF02B027
:1005700010BDC046F4C8001058110020012383406C
:10058000002904D0034A1360034A13607047034AEA
:100590001360FBE780E200E000E100E080E100E0C2
:1005A000024B10309B688000C058704700ED00E09F
:1005B00070B50D00EFF3108672B60F4A1368002B6A
:1005C000FCD0BFF35F8F0D4B10309B6884001B592C
:1005D0000B4A934203D09D4201D001F0FFFA074B32
:1005E0009B681D51BFF35F8FBFF35F8F0022024BEB
:1005F0001A6086F3108870BD240100D000ED00E081
:10060000CD010010F0B5DE4657464E464546E0B5F2
:100610000C0083B0EFF3108872B65D4A1368002BAC
:10062000FCD0BFF35F8F5B4B5B499A6803001033CC
:100630009F00D5598D4239D0A5424AD0574EAA1BAA
:100640002F2A33D801229246824091464846544A86
:100650001268104001904846524A1060BFF35F8F05
:10066000EFF305829346002A35D0934201D001F082
:10067000B5FA2A0053469A439068844208D175E03F
:100680004B005B189B00F3189868A04234D01A0006
:10069000062151560029F3DA844253D0019B002BE6
:1006A00026D04A46404B1A603D4B1A60394B9B6836
:1006B000DD51BFF35F8FBFF35F8F0022344B1A60B1
:1006C00088F3108803B0F0BCBB46B246A946A046EA
:1006D000F0BD0D00EAE72A0053469A439068844231
:1006E000D6D1062010561300002809DA0D0031E09B
:1006F0004A462C4B1A60D9E706201856002822DB00
:1007000042001118890074188A46A1689960E1793D
:10071000D971062161569971002925DBA488F11A47
:100720006405241554440919E0240905490D2402DF
:100730002143998013181D4A9B001178F318997171
:100740001070ABE713005946002914D1FF319171A5
:100750001749918015490A789A71164A9B1B5B418B
:100760005A43120D0A7099E71349E2E70620105622
:1007700013000028C4DA114A1149D21A083A50026B
:10078000400D014399800F4952080A43DA8085E7FA
:10079000240100D000ED00E0CD0100108C0200200B
:1007A00000E100E080E100E080E200E007120020CC
:1007B00001BDFFFFAAAA000001BD0000C602002083
:1007C00000F0FFFF00F8FFFF70B5EFF30581012493
:1007D0000443EFF3108C72B6214A1368002BFCD04F
:1007E000BFF35F8F1F4B05001F4AED1A6D416A432F
:1007F000120D1E4D8900AE6852B27658A6421CD02A
:100800000621595691421CD012215956914222D0AC
:100810001E215956914220D02A2159560324914233
:1008200010D0134B19781A708171BFF35F8F0022BB
:100830000B4B1A608CF3108870BDAB680D4C5C508C
:10084000EFE700246100091989005B18FF21997105
:1008500009499980E5E70124F4E70224F2E7C0465C
:10086000240100D08C020020AAAA000000ED00E0C4
:1008700007120020CD01001001BDFFFF054B064A05
:100880001360064A136053609360D3601361536131
:10089000936170478080808000E400E004E400E021
:1008A00070B504000E001500FFF74AFE010020009D
:1008B00000F006F8A680E580BFF35F8F70BDC046EC
:1008C000024B9C466144890001607047400000343F
:1008D00010B50400FFF734FE01002000FFF7F0FF21
:1008E000FF232371BFF35F8F10BDC04610B5040016
:1008F000FFF726FE01002000FFF7E2FFFF23A380A1
:10090000BFF35F8F10BDC04610B504000120FFF794
:1009100023FE034BC3189B002360BFF35F8F10BD02
:100920004000003483680B4810B58446614462443B
:100930001201090159189B185C684A680120944209
:1009400001D802D00020C0B210BD1A680B689A42CC
:10095000F9D8F7E7FFFFFF0F0A4B1968EFF3108094
:1009600072B60A68002AFCD0BFF35F8F1B68BFF322
:100970005F8F00221A6080F3108840BF00200021A2
:100980007047C046E8110020F8B5574645464E4628
:10099000DE46E0B598460CAB1C780DAB1B78070023
:1009A00091469A460568002C5ED1AC7B002C3BD06A
:1009B000660029683619033E89194B78AB73002B02
:1009C00000D1EB7300238B704B700B702D4BE21832
:1009D000BB6812019B184A461A6042465A600A9A3E
:1009E0009A600B9ADA6000238B704B700B706B7BF4
:1009F0009B46002B2BD022005946A8686B6898476D
:100A00002A68002816D05B4658465B005B4496195E
:100A1000033BB070D118D35C002B00D073705B46E1
:100A20000C706B735C4513D0F0BCBB46B246A94654
:100A3000A046F8BD5B465B005B44033BD3189C704B
:100A40009119925D002A00D05A705B460B706C734E
:100A50004A464346387D00F04FFB051E0AD10E9BE7
:100A6000002BE1D01D70DFE7660029683619033ED0
:100A70008919ABE75346002BF1D12100386800F00B
:100A800065FDECE7FFFFFF0FF0B5DE4657464E462B
:100A900045460023E0B58BB00893674B8200D458DD
:100AA00000239B46099000F0A3FA02000B00606847
:100AB000EFF3108A72B6564601680029FCD0B246A0
:100AC000BFF35F8F21684F7B8C46002F2ED0A56827
:100AD0005A49A9467918090189444946086849686C
:100AE00005000E00AD1A9E41002E5FDD02000B00D6
:100AF000099800F001FB002300229946002306928A
:100B00000793002398466368BFF35F8F5A461A60C5
:100B10008AF310884346002B12D10028C3D10BB0B2
:100B2000F0BCBB46B246A946A046F0BD0023002259
:100B30009946002306920793002300209846E2E797
:100B4000089B494618023843C047626805000E00FA
:100B5000EFF3108A72B61368002BFCD0BFF35F8FDF
:100B6000002E40DB2B00334302D02369002B55D1EC
:100B70002368D97B002905D01A684800411852180B
:100B8000033A57709A7B002A00D19F73DF73E268A3
:100B9000013FD35D0133D3555B4623616368BFF3E7
:100BA0005F8F5A461A608AF310887CE7002E01D1C5
:100BB000002D9BD10021604600F046FC4B461A6890
:100BC0005B68069207934B469B6898464B46DB68EA
:100BD0009946E368DB19013B1B7808931B0203432A
:100BE000236100208FE72369002BC1D0069A079B61
:100BF0008021521BB34109068B4202D30122104BC4
:100C0000524200210491013103914946019141462C
:100C1000200002970091FFF7B7FEBDE700F0E8F96A
:100C20002A00330012184B41802109068B42E8D379
:100C30000122034B5242E4E7D0110020FFFFFF0FD7
:100C4000FFFFFF7F10B5144C6368002B04D00A210E
:100C50001248FFF735FE10BD2300114A102120680D
:100C600000F008FB032000F0B7F9032000F0B2FA0F
:100C700003200C4900F0FAF9FFF762FC0A4B9C468E
:100C800003232375D0231B061B6860446375074B41
:100C900080006060DC60DAE7D4020020E811002008
:100CA00025090010890A001040000034D0110020EE
:100CB000F0B557464E464546DE46E0B585B0019351
:100CC00010AB1B780600039300239A4698460092C7
:100CD0007268EFF3108B72B61368002BFCD0BFF371
:100CE0005F8F3568AC7B002C00D16FE067002B680C
:100CF0003F19033FDB195A78AA73002A00D1EA731F
:100D00004B4AA118B2680901521800980199106065
:100D100051600E9991600F99D16042469A705A7055
:100D20001A706B7B9946002B00D170E02200494677
:100D3000A8686B6898472A6800285BD04B464846ED
:100D40005B004B44D719033BB870D118D35C002B20
:100D500000D07B704B460C706B734C4558D0F368D9
:100D60001B19013B18787368BFF35F8F42461A6006
:100D70008BF310885346002B08D10002204305B0A6
:100D8000F0BCBB46B246A946A046F0BD039B002B73
:100D90004BD00E9B00200F999847030004000D00D4
:100DA0000B4342D000291ADA009A019B121BAB4177
:100DB0000092019380221206934204D301231D4C1A
:100DC0005B4200930194039B9A4681E77368BFF3EB
:100DD0005F8F1C608BF3108801204042CFE700F04A
:100DE00007F9802224184D4112060094019595427E
:100DF000E9D3E3E74B465B004B44033BD3189C70BD
:100E0000D119D25D002A00D05A704B460B706C731A
:100E1000307D009A019B00F06FF9824600289ED039
:100E20002100306800F092FB99E70020A7E7C04658
:100E3000FFFFFF0FFFFFFF7FF8B50B0004004168C5
:100E4000EFF3108572B60A68002AFCD0BFF35F8FFB
:100E50002068D9B2427B8A4209D0FF261E40026830
:100E60007700BE199219033A9278002A12D0FF2611
:100E7000E2681E409219013A1B0A1278DBB29A42CC
:100E80000DD000206368BFF35F8F00221A6085F3E6
:100E90001088F8BD21699942F3D12261F1E700F091
:100EA00055FBEFE770B5EFF3058305000C0084B048
:100EB000002B0AD0164A0020536A9C4203D8926A3B
:100EC0000130AA421FD304B070BD124E02930193A9
:100ED000114B0200009330000B00FFF7E9FE011EEA
:100EE000E8DD20BF3000FFF7A7FF094B00205A6A5A
:100EF0009442E8D89B6A0130AB42E4D2A41A631E44
:100F00009C41E0B2DFE7E31A5A1E9341D8B2DAE718
:100F100000400540D402002059090010F0B5EFF35D
:100F20000582D6464F4646461000C0B51038EFF34E
:100F3000108872B6214C2368002BFCD0BFF35F8F62
:100F40000123190081401E4D1F006963AA461D4DF3
:100F500029601D4D2E78AC463500C5402F402B42F0
:100F600015D053465F6A194B8500EB589F4218D342
:100F70006246174B8E43EB581670BFF35F8F00220B
:100F8000226088F31088002B06D0984704E0BFF356
:100F90005F8F276088F31088E0BCBA46B146A84648
:100FA000F0BD0C4B92009C46624413681360BFF383
:100FB0005F8F0023236088F31088EDE7280100D0BD
:100FC000004005403C70054009120020EC11002053
:100FD00040110020D03F054010B5034B0100180020
:100FE000024AFFF72FFA10BD0512002018C90010A1
:100FF000034B596A0A00986A596A8A42FAD17047C3
:101000000040054070B504000D00174A536A1900EE
:10101000966A536A8B42FAD13000190024184D4168
:10102000AB4216D813D0104B2A005B6A9D4203D9FD
:101030000D494B6A9342FCD3934207D10A4A02E01E
:10104000516A994202D1916AA142F9D370BDA64278
:10105000E9D9054B5B6A1C005A1CEFD00122012420
:101060006442E5175242E3E70040054070B50400D2
:101070000D00EFF3108672B61A4A1368002BFCD0ED
:10108000BFF35F8F002D1BD02000FFF789FA1649B0
:1010900081420AD02000FFF78BFA01212000FFF7E0
:1010A0006DFA0123A340114A1360114BA400E550CF
:1010B000BFF35F8F00220B4B1A6086F3108870BD60
:1010C0000121A1400A4BA200D5500A4B20001A78FA
:1010D0008A4305491A70FFF795FA00212000FFF7AF
:1010E0004DFAE5E7280100D01D0F001038600540DB
:1010F0004011002009120020F0B54F46D646464662
:10110000C0B507002E4C616A0D00A66A616AA9424B
:10111000FAD18B4208D805D00120E0BCBA46B146CE
:10112000A846F0BDB242F7D9EFF3108A72B625484F
:1011300001680029FCD0BFF35F8F0125BD40224923
:101140001F4C8846097889462943C9B28C464146D6
:1011500060460870391D890065630A511B49B80053
:101160004350216A0020294219D0616A0800A66A0A
:10117000616A8142FAD18B4219D801D1B24216D8A4
:10118000CC450BD00E4B1F221D625D6301233A40FC
:1011900093400F4A136043464A461A700120BFF33A
:1011A0005F8F0022074B1A608AF31088B5E7002092
:1011B000BFF35F8F0022034B1A608AF31088ACE7FD
:1011C00000400540280100D009120020EC11002049
:1011D00080E200E0EFF3108C72B60A490B68002B36
:1011E000FCD0BFF35F8F01238340074A0748136297
:1011F00002789A430270BFF35F8F00230B608CF379
:1012000010887047280100D00040054009120020D6
:1012100070B505000E001400002923D0002A12D05A
:1012200080686B689847296800280ED063001B19F6
:101230007200033B9219CB18033A9E7088188A5C9F
:10124000002A11D10470300070BD73009B19620038
:10125000033B1219CB18033A9C7088188A5C002A49
:1012600005D106702000EFE75A700470EBE75A7062
:101270000670F7E730B583600023CCB243730133C7
:10128000047342608373C4730D000068012C06D997
:10129000421C0133DBB2137003329C42F9D1FF21AF
:1012A00029404B005B18C01800230338437030BD41
:1012B00070B505000C1E07D0630001681B19033BC5
:1012C000CB185A78002A01D1200070BD5000801838
:1012D0000338091800204E78487021005870280003
:1012E000FFF796FF310004002800FFF7E1FF06003A
:1012F000002C26D00028E7D021003200A8686B68B7
:101300009847296800280ED073009B196200033BA0
:101310001219CB18033A9C7088188A5C002A00D0F6
:101320005A700670D0E763001B197200033B9219D4
:10133000CB18033A9E7088188A5C002A00D05A7035
:1013400004703400C0E7C046F0B557464546DE4657
:101350004E46E0B50D006F0001687F19033F0400A1
:10136000C85D83B00192CA19002850D043001B18F1
:10137000033BCB185E78B446002E1AD1019E002E96
:1013800042D0E67B002E04D073009B19CB18033BA0
:101390005D70A37B002B00D1A573E57300282FD1CE
:1013A0000023537003B0F0BCBB46B246A946A0462A
:1013B000F0BD72006244033A8A18517888460021D1
:1013C000517089465970320001002000FFF720FF5C
:1013D00043468246002B07D05B0021684344033B11
:1013E000CB185A78002A16D1424651462000FFF702
:1013F0000FFF2168019BCA19002BC2D10028CFD052
:1014000043001B18033BCB1800219970C8E7019BD0
:10141000002BB6D1C4E7500080180338091848786B
:10142000834648464870587041462000FFF7F0FE5A
:10143000594680462000FFF73BFF4146020020004E
:10144000FFF7E6FE8046CFE7F0B557464546DE4655
:101450004E46E0B583B00191457B04006F00006803
:101460007F19033FC15DC219002952D04B005B18A0
:10147000033BC3185E78B446002E1CD1019E002E9B
:1014800044D0E67B002E04D073009B19C318033BA5
:101490005D70A37B002B00D1A573E573002931D1CA
:1014A000002328005370617303B0F0BCBB46B24602
:1014B000A946A046F0BD72006244033A82185078F3
:1014C0008046002050708146587032002000FFF79F
:1014D0009FFE43468246002B07D05B0021684344B1
:1014E000033BCB185A78002A17D1424651462000B8
:1014F000FFF78EFE019B01002068C219002BC0D1AE
:101500000029CDD04B005B18033BC3180020987016
:10151000C6E7019B002BB4D1C2E750008018033806
:10152000091848788346484648705870414620005C
:10153000FFF76EFE594680462000FFF7B9FE414690
:1015400002002000FFF764FE8046CEE770B505007C
:1015500000292CD0437B8B422ED04C0000686418AD
:10156000033C0419A278002A21D053009B18033BA6
:10157000C25CC6188A4202D11BE0002A08D0530080
:101580009B18033BC3185A788A42F6D162785A7086
:10159000002301222800A3706370FFF7D5FE697B4A
:1015A00002002800FFF734FE6873012000E00020ED
:1015B00070BD63783370EBE701221900FFF7C4FEBA
:1015C000F2E7C046F8B5040006200D0000F0C4F9AB
:1015D000002844D02A4B2B49E21853425A41802319
:1015E000DB039C469205284B62441A60274B1A6025
:1015F00010008B689843FBD1214B254AE3185942D0
:101600004B4180215B0049000620995200F0A4F96B
:101610002900C00001F09CFEC30921D1402701210F
:10162000260080256162A36200232C36AD0135437C
:101630002B60062000F090F93900800001F088FE50
:101640006022E36A53400E321A4080235B01334329
:101650001A60104B236310232B600D3BA364F8BD6D
:101660000D4A934203D900230C4F0D49D8E77F223E
:101670000240013252089F011900BF181300CFE742
:101680000080FCBF00C0004000E0004000F00040CF
:10169000FC11002001030000FEFF0000C0FF3F001E
:1016A000FFFF000010B50C2082B000F0AFF9FEF78C
:1016B000C1FE002810D0864B86488649864A1860AD
:1016C00059609860D960186159619861D961186250
:1016D00059625A6202B010BD804CA06700F09EF9BA
:1016E00001227F4B1A60636C012BFCD103227D4BDE
:1016F0001A607A4A936B012BFCD1013301217A4A9B
:101700007A480093043300F02DF90523784A0093BA
:101710000121784800F026F9774B5A68FF2A02D851
:10172000802252005A6080226E4B694C12011A606E
:101730002169002905D0606901F00AFE01300138F5
:10174000FDD1E0226C4B6D4819680A40026002220C
:101750001968514001320A40042102609A6811421E
:10176000FCD08021664A09011160802252005A6033
:10177000644B2361644B5968FF2900D85A600322E7
:101780000121574B1A60604A93681942FCD0E0234C
:10179000106803405D480360126803234A40022139
:1017A0001340594A036093681942FCD08021584B7A
:1017B000090119608021574B490051606361564B04
:1017C0005A68FF2A00D859608022544B12011A60CF
:1017D000E169002905D0606901F0BAFD01300138E6
:1017E000FDD1E0234C4A11680B404D490B6080212C
:1017F0004C4B090119608021364B49005160E3616F
:10180000494B5A68FF2A00D859608022474B120181
:101810001A60216A002905D0606901F099FD013044
:101820000138FDD1E023404A11680B4040490B606C
:101830008021404B0901196080235B0053608022A6
:10184000244BD20223623C4B5968914200D25A6029
:1018500080223A4B12011A60616A002905D0606942
:1018600001F076FD01300138FDD1E023324A1168E4
:101870000B4033490B608021324B090119608023F2
:10188000DB025360144B63622F4B5A68FF2A02D865
:10189000802252005A6080222C4B12011A60A169EA
:1018A000002905D0606901F053FD01300138FDD1F8
:1018B000E023254A11680B4025490B608021254B08
:1018C0000901196080235B005360124BA36101E79B
:1018D000500A0020006CDC021BB7000000800040B2
:1018E0003CB0004030B00040002F685900800240FA
:1018F000008C864700C0024030800040309000409D
:1019000030A00040001BB7003C8000403C900040ED
:101910003CA00040405973075480004054B0004040
:101920005490004054A000406080004060B00040EF
:101930006090004060A000406C8000406CB00040AF
:101940006C9000406CA000404880004048B00040CF
:101950004890004048A00040014B8000C0587047AC
:10196000500A0020F8B504000C2017001D000E00DE
:1019700001F0EEFC43011B1A9901C91AC9000918AC
:101980008901380001F0E4FC069B29041B0319437C
:101990002368002B20DB194B194DE3185A425341A1
:1019A0008022520194461B03164A63441360164A70
:1019B00013601F00AA689743FBD1C023221D9B011F
:1019C000134321222660A0601A602268002AFCDAF4
:1019D0000822E1601A60F8BD3F2322681340B34239
:1019E000D9D1A3681B051B0D8342D4D1EE22E36835
:1019F000D20213408B42CED1EDE7C0460040FDBF7E
:101A000000C0004000E0004000F000408023024A97
:101A10009B000343D362704700800540AA23064A17
:101A20001B0113602F230549D360054B19605368D0
:101A3000002BFCDA7047C0460040024000B0FA00BC
:101A4000006002402C4B2D4A70B51A602C4A2D4B79
:101A50002D491A6014008B689C43FBD12B4D2C4EF2
:101A6000B54208D2013E761BB60808CD9847230040
:101A70000134B342F9D1FFF715FE264A214B1A6013
:101A8000214A9368DB43DB01DD09002BF9D14022B9
:101A9000214B224C224E9A675A671A67DA66B44283
:101AA00008D223682000002B20D00834FEF71EFF48
:101AB000B442F6D31B4C1C4EC022B168200002F089
:101AC000C9FBB460FEF72EFDFEF7D8FEFFF7BAF8AB
:101AD000164C174EB44208D2013E361BB60808CC4D
:101AE00098472B0001359E42F9D170BD0834FEF7AE
:101AF000EFFEB442D5D3DDE700E00040BFCDFBFEF2
:101B0000FE7F3C0000F0004000C000401C0A0020A6
:101B10002C0A0020FFFFFF0100F001400C0A00200A
:101B20001C0A00200000002000ED00E02C0A00202C
:101B3000340A002000BEFDE7094A030010680028AF
:101B400005D00849C3188B4207D813607047064870
:101B50000449C31810608B42F7D901204042F5E7D1
:101B6000B0110020000004200C12002010B5FFF777
:101B7000E1FFC04630B50D0083B01900002A0BD03C
:101B8000074B084C0192009302002B00200001F04B
:101B900045FB0120FFF7CEFF034B1A00F1E7C046DB
:101BA0003CC900104CC90010C4CD00100FB400B5E2
:101BB000084883B002F030FC049B002B07D005A935
:101BC0001800019101F04AFB034802F025FC0120B6
:101BD000FFF7B0FF7CC9001080CF001010B501489E
:101BE000FFF7E4FF8CC900109A4200D28854704776
:101BF0007047C046F8B557464546DE464E46E0B506
:101C000098460A9B06009A460D9B0F0093461500C6
:101C10009B0710D10B9B0C9A93420CD213005C468D
:101C20000B9A9D1A5D44220043460134390020205E
:101C3000B047A542F7D10B9C6319002C09D01D00B9
:101C400053462A1B013C185D39004346B047002C1F
:101C5000F6D10D9B9B070ED55B46EC1A0C9BA3425D
:101C600009D999462A004346390020200134B0475B
:101C70000135A145F6D82800F0BCBB46B246A946BE
:101C8000A046F8BDF0B54F464646D646C0B584B02E
:101C900098460EAB1B7894469946129B0D9C109F5C
:101CA000119E9A0724D4002E6AD1BC4220D2012270
:101CB0001A409246202C00D1CBE00C9A551E3022BF
:101CC00001E0202C30D001342A55A742F9D85246E1
:101CD000002A0DD0B4420BD20C9A551E3022202C73
:101CE00002D126E0202C61D001342A55B442F9D12A
:101CF000DA0634D55A0562D4002C5CD10F9A102A2A
:101D000000D191E0022A00D1A1E030220C9C227087
:101D100001244A46002A5CD15A0700D47DE02B22D8
:101D20000C9D2A5501341CE05246002A02D0202E78
:101D30003CD92024DA0614D55A0512D4202F00D11C
:101D400097E0202E3BD120261F2234000F9D102D1E
:101D500000D181E0022D4CD030250C9FBD54202CA9
:101D6000D7D103930C9B624600930296434601949D
:101D7000FFF740FF04B0E0BCBA46B146A846F0BD4C
:101D8000012215001D40AA461A4227D04A46002AC1
:101D900033D10C321A4230D1BC429BD2202C00D01D
:101DA0008BE7202EC5D8DA06A4D4DAE72024DA0699
:101DB000D7D55A0503D4A74221D0B4421FD00F9AD9
:101DC000102A21D0022A10D0202CCAD0220001349F
:101DD000C2E72D220C9D2A550134C2E7BC4200D334
:101DE00086E7202C00D068E7E1E7202CB9D022005C
:101DF000013462250C9FBD54E6E7013ECCE7621E2C
:101E0000012C00D17AE7A1E79A0616D4202CA8D09D
:101E100078220C9D2A550134D6E71A07A1D5202235
:101E20000C9D2A5501349CE79A060ED478220C9C0E
:101E300022703022627002246BE7202C91D058254A
:101E40000C9A121915700134BEE75822EFE762228E
:101E5000EDE7002AA7D1AAE7023C9D0604D4782525
:101E60000C9F3D551400B1E758250C9F3D551400BB
:101E7000ACE71F226AE7C04610B5002800D110BDAC
:101E800002F07EFAFBE7C0460B0010B5002802D036
:101E900049681B68984710BDF0B557464E46454601
:101EA000DE46E0B599B08246894690460993229A6B
:101EB000239B1000190001F01CFD002800D0C8E091
:101EC000229823990122D54B524201F00DFD0028A2
:101ED00000D0BEE0229823990122D14B524201F05A
:101EE000EDFC002800D0B4E02298239900220023C2
:101EF00001F0E4FC002800D0E9E1229E239F80232A
:101F0000269ADB001A400D92269A1A4201D1062326
:101F100024933B00334300D0B4E0269B1B0500D53F
:101F2000BFE1002300240A930B94002304250C93A3
:101F3000259B0024AB4200D95C1B0223269A1A4041
:101F40000D92269A134203D06B426B415B421C40B8
:101F50000C9B002B07D00A9A0B9B3000390001F034
:101F600044FC06000F00229823990022002301F070
:101F7000A5FC002803D0802109067B181F00269AA3
:101F8000A84B009601971340099E0493249B039449
:101F90000293424633004946504600F0A7F9040038
:101FA000002D67D02020269A4946024013005A424D
:101FB00053415B42621C18400A92330022004530B4
:101FC000D0470C9A6F1ED317D4185C40D30F9B4692
:101FD000002501E0202D13D008AA94461F232000DD
:101FE00063440A2101355E1901F0B2F930313170D4
:101FF00020000A2101F0ACF926000400092EE9D8DE
:1020000005230693002304930A3303935B46099E3A
:10201000029310AB0A9A0093494633005046059745
:102020000195FFF72FFE0D9A0400002A22D04246A8
:10203000851A259AAA421DD9B04657461600220095
:102040004346494620200135B8470134AE42F6D810
:1020500010E0269B42460493259B49460393249B0C
:1020600050460293229B239C00930194099B00F00D
:102070003DF90400200019B0F0BCBB46B246A946A9
:10208000A046F0BD684B78009C46400D604401F0CE
:1020900043FC664A664B01F0C6FB664A664B01F09C
:1020A0009BFB664A3B031B0B1A4304000D00644B69
:1020B00011003000002201F086FB624A624B01F001
:1020C000B2FB02000B002000290001F085FB01F0AB
:1020D0003BFC0C9001F020FC5C4A5D4B04000D00C1
:1020E00001F0A1FB00225B4B01F076FB01F02CFC20
:1020F000594A8346594B2000290001F094FB040003
:1021000058460D0001F008FC554A564B01F08BFB78
:1021100002000B002000290001F055FB02000B001B
:102120000A900B9101F07FFB04000D000A980B99B7
:1021300002000B0001F050FB00220E900F914A4B61
:102140002000290001F051FB0022484B01F044FB24
:1021500002000B002000290001F047FB0022444B45
:1021600001F03AFB02000B002000290001F03DFBCA
:102170000A9A0B9B0D0080210400C905002001F084
:1021800022FB02000B002000290001F025FB394C46
:1021900002000B000E980F9901F027FB5C4400220F
:1021A000264B01F019FB2305002201F03CFB040043
:1021B0000D0002000B00300039000A940B9501F06D
:1021C0007DFB00285ED123002A00C6250C996331CF
:1021D0008D42AD4126996D420435090500D4A7E62C
:1021E000134364D030003900234A244B01F074FBC0
:1021F000002807D0002230003900214B01F05EFB9F
:10220000002854D1249B002B00D191E60D9B5A1E2F
:102210009341249AD31A24938AE6C046FFFFEF7FA6
:10222000FFFFEFFFFFF7FFFF01FCFFFFFB799F5070
:102230001344D33FB3C8608B288AC63F0000F03FE9
:102240000000F83F61436F63A787D23F71A379090C
:102250004F930A400000E03F1655B5BBB16B0240FA
:10226000EF39FAFE422EE63F00002C4000002440E9
:1022700000001840FF0300002D431CEBE2361A3F1C
:1022800080842E410C9B0022013B0C932000164BB6
:10229000290001F0AAFA0A00010003000A910B923A
:1022A00093E7002300240A930B9400230C93249AB1
:1022B0000C9B9A4214DDD31A013B24938023269A67
:1022C000DB001A430023002526920C9330E680227F
:1022D00012069446229B1E00239B63441F000EE6B9
:1022E00000232493EAE7C04600002440F0B54546A9
:1022F000DE464E465746E0B595B08B469046994629
:102300001E9A1F9B0A9019001000209D01F0F1FAFF
:10231000002800D0B0E11E981F990122C74B5242FD
:1023200001F0CCFA002800D037E11E981F99012255
:10233000C34B524201F0D8FA002800D0A7E01E9803
:102340001F990022BF4B01F0CFFA002800D088E08F
:102350001E981F990022BC4B01F0B0FA002800D053
:102360007FE01E981F990022002301F0A7FA0028A1
:1023700000D0FAE000230B938023229C229ADB00FA
:102380001C401A4200D102E1092D00D87EE106A9C5
:102390008C462C00172200233021093C6244013373
:1023A000D154EF1A202B00D132E1A342F7D1002201
:1023B000A44B069207931E981F9901F0C5FA0500D9
:1023C00001F0AAFA02000B001E981F9901F0FBF918
:1023D000069A079B01F027FA0890099101F0D8FAB4
:1023E000060001F095FA02000B000898099901F027
:1023F000EAF90022954B0890099101F075FA00283E
:1024000000D1D2E00136300001F082FA069A079B33
:1024100001F062FA002801D000260135AA46002FFB
:1024200000D098E0280001F077FA02000B001E9817
:102430001F9901F0C8F9854B002206000F0001F03A
:102440003DFA0CAB9A46002845D1002230003900F5
:102450007E4B01F049FA00283DD1EB073BD5013511
:1024600039E0229B42460493219B594603930A98E4
:102470001E9B1F9C0295009301944B46FFF70CFD99
:1024800015B0F0BCBB46B246A946A046F0BD229BA3
:102490005B0767D403226E4B229901920391219925
:1024A0000291009342464B4659460A98FFF7A2FB19
:1024B000E6E706AA94461723280063440A2101345C
:1024C0001E1900F01DFF3031280031700A2100F084
:1024D00017FF051E76D0202CEBD10323229A134040
:1024E000012B1DD1219B002B1AD00B9B002B00D060
:1024F000BBE0229A0C33134200D0B6E0219BA342EA
:1025000000D887E006AB9C4617223023624404E0E3
:102510002199013413558C4259D0202CF8D1202414
:10252000229B01940393219B02935346B9E706AA89
:10253000944617230A216344300001341D1900F02A
:1025400007FF3031297030000A21013F00F000FF01
:10255000092E46D90600202CE9D155460CAB202483
:102560009A46B8E704223B4B96E71E9A1F9B002031
:10257000002101F028F901230B938023229C229A49
:10258000DB001E901F911C401A4200D0FCE6002286
:10259000314B0627069207930DE7229B0393219B5D
:1025A0000293042301932D4B7BE70022089809999D
:1025B000264B01F083F9002800D02FE7002E4FD1E1
:1025C00001362BE70323229A1340012B68D0202CDD
:1025D000A6D00B9B002B1FD02D2352461355013440
:1025E0009EE75546202CB9D030223B19002F4BD006
:1025F000172006A9013409180A55202CAED09C4298
:10260000F6D10CAA92462E2251465C1CCA5462E7AF
:102610002024CCE6202C83D0229B5B0708D4229B6D
:102620001B0700D47CE7202352461355013477E77B
:102630002B2352461355013472E7C046FFFFEFFFCC
:10264000FFFFEF7F65CDCD4165CDCDC10000E03FFF
:10265000A0C9001098C9001080842E41A8C900109C
:10266000F30700D4DAE60136D8E6219B013B21933B
:10267000A34200D946E7AAE7229B0393219B02933A
:1026800003230193084B0CE72300BAE7074BEA004A
:102690009B185C681B682F000693079400248AE649
:1026A000219B002B93D020E7A4C9001050CB001031
:1026B000F0B5DE4657464E464546E0B59FB01C0095
:1026C000289B93460A93CC4ACC4B8A4609901A60C1
:1026D000002900D14DE1002320789946002800D13F
:1026E0004FE1C74B4D460893C64B0D930AE02A00B5
:1026F0006E1C5B46099D5146A84735000134207881
:10270000002872D02528F2D110239946083B98461C
:10271000043B00219C460227013420782600030058
:10272000203BDBB2102B03D8089A9B00D3589F465E
:102730000300303B092B6ED900272A2800D18AE0FC
:1027400000230B932E2800D176E00300683BDBB218
:10275000122B1BD8AC4C9B00E3589F46012301343D
:102760001943DAE739430134D7E7634601341943A3
:10277000D3E74B4601341943CFE7434601341943AD
:10278000CBE780235B0070781943013667280AD8AD
:1027900024281FD90300253BDBB2422B1AD80D9AFF
:1027A0009B00D3589F460300693BDBB20F2B11D827
:1027B00001249C40954AA446904614400C946246DD
:1027C0004446224200D025E20A2B00D101E1072B2A
:1027D00000D1D8E0099C2A005B465146A04770789A
:1027E0006F1C741C3D0000288CD1A9462C00CB45E1
:1027F00003D801235B425B4499465B464A465146F7
:102800000020099DA84720001FB0F0BCBB46B2467F
:10281000A946A046F0BD0027BB00DF1901367F00A6
:102820003F183078303F0300303B092BF4D90023A8
:102830000B932E2800D088E780237078DB001943A3
:102840000300303B741C092B00D82CE12A2800D14E
:1028500038E1260079E70A9B80CB002F03DB607804
:102860000A93661C6CE70222607811437F420A9348
:10287000661C65E7672800D1C8E1472800D104E25B
:10288000452800D104E207200A9B049107338343C3
:1028900019000B9A039702920CC9099800920193B0
:1028A0000A912A005B465146FFF7F6FA741C0500B0
:1028B00025E770786C2800D10DE280235B00194376
:1028C000013663E780239B007078194301365DE78A
:1028D0007078682800D1F9E180230136194355E763
:1028E000462800D18FE107200A9B049107338343D8
:1028F00019000B9A039702920CC909980092019350
:102900000A912A005B465146FFF7F0FC741C050053
:10291000F5E62A00099C5B46514625206F1CA0471E
:102920003D00741CEBE6890700D4DEE10A9B2A0017
:1029300098466B1C9946434601CB51469846099CE4
:102940005B46C0B2A047ED19012F00D893E24C4678
:10295000B1465646099F22005B46013431002020D3
:10296000B847AC42F7D1B24643464E460A93741C70
:10297000C5E6274B2078099300239946002800D00C
:10298000AFE6002433E70A9B1A0008CA9046002BE2
:1029900000D1A7E0212008430EA98C461F226244E3
:1029A0000F27AC46814615000C9C02E0202C0CD071
:1029B00013003800184001003731092800D80739C2
:1029C000013429551A090F2BF0D8654648460C9456
:1029D00094E00A9B1A0008CA12920B9A002A7BD133
:1029E00002241A786442002A1DD0013418199C462A
:1029F0001C00030010E0C046B1260010B4110020F6
:102A0000B0C9001040CA0010F4C900104190000085
:102A1000F11B00109C4203D0607801340028F9D1EA
:102A20006346E01A0C908020C0008446084080462F
:102A30006046014204D00B980C9C844200D90C9053
:102A40000220844608400A906046084200D189E18D
:102A5000101E00D170E14246002A00D11BE10B9A02
:102A60005B1B9046A84444462A00B8469946574600
:102A7000B246099E09E05B463900551CB0474B46FB
:102A8000585D002800D12CE12A009442F3D156462B
:102A90002500BA4647460A9B002B00D04CE1129B0A
:102AA000741C0A932BE6002293009B185B000134F0
:102AB0001A182078303A0300303B092BF4D926004D
:102AC0000B9242E60A9B023604CBD043C017024069
:102AD0000B9230780A9338E61A78002AA3D00B9824
:102AE000441E82E7102308008027984311331843BF
:102AF0000B00FF003B40394200D14DE7082305930E
:102B00000B9B2A00049310230393002302930C9B36
:102B10000690019316AB009351465B460998FFF768
:102B2000B1F843460500741C0A93E8E5622800D119
:102B3000A6E1582800D1B1E180230A00DB001A4049
:102B40009046194200D189E1112399438C46802394
:102B500062469B001A40100062461A4200D023E1F0
:102B6000802364465B001C401A4200D032E2634678
:102B70005B0600D56BE163460A991B0600D4DBE2D5
:102B800008C91BB2DA179818504080B20A91DA0FC0
:102B90000C92002B00D118E280460EAA91461F230A
:102BA0004B441395E14645461297B0461E0001E09E
:102BB000202C0FD028000A2100F0CAFB013437195D
:102BC0003031397028000A2100F0C2FB2F000500C7
:102BD000092FEDD84646CC46129F139D63460693B7
:102BE0000B9B059704930A2303930C9B029316AB4C
:102BF0002A000194009351465B460998FFF742F87A
:102C0000741C05007BE5202319436CE680231B011F
:102C1000194338E6782800D07CE180230A00DB00E5
:102C20001A409146194200D1A5E20D2399430800AC
:102C300003330C93802302009B001A4090461842F5
:102C400000D078E1802304005B001C40184200D0D3
:102C500007E2430600D453E2FF210A9B04CB0A405B
:102C600090460A934346002B00D026E11033984348
:102C70004B46002B00D120E100240B9B06900493CF
:102C80000C9B059703930023B0E780231B01194396
:102C900020231943F7E55B1B99460C9B099C98463A
:102CA0005B46B3465646BA461F002A003B00310039
:102CB000A0474B460135585D0028F6D143460C939A
:102CC0003B005746B2465E469B46E4E6C023B078DA
:102CD000194302365AE5C0239B00B07819430236E7
:102CE00054E55646BA464746D5E6012F00D832E2AB
:102CF0006B1E9846B8442C00A9464546B846574630
:102D0000B246099E22005B46013439002020B047BC
:102D1000AC42F7D10A9B564601CBBA464746984685
:102D200022005B46099C5146C0B2A0474D4643462F
:102D3000ED190A93741CE2E40C9BA8469F4200D84C
:102D4000ADE64446B04656467D19099FED1A22006D
:102D50005B46013431002020B847AC42F7D1B2467F
:102D600046469CE60C98874200D8F0E142469846D9
:102D70007919B9465746B246099E0C1A0C922A0098
:102D80005B46013539002020B047A542F7D15646B1
:102D9000BA464F4643460C9A90467A1C0C921A78D3
:102DA000101E00D057E67AE60822072191460A9BBA
:102DB00007338B4399444A460ACB0C000A921C43C2
:102DC000DA0F002C4ED0D817040010904C40119010
:102DD0000E94109811990C005C400F940E9B0F9C60
:102DE0001B1A8C410E930F940EA988461F230024B2
:102DF00043441297B046270013951E000E9C0F9D6A
:102E0000E1460C9201E0202F10D0200029000A2278
:102E1000002300F0DBFA013730322B00F2550D00B1
:102E200022000400002BEED1092AECD84646CC46FD
:102E30000E940F950C9A3C00139D129F63460693C7
:102E40000B9B059704930A2302920393CFE6FF237B
:102E50000A9904C9134018000A9198E6102399436F
:102E60008C4674E643460024002BE7D1002300245F
:102E70000E930F94B8E743464D460A93741C3EE404
:102E800080230A00DB001A409146194200D140E13C
:102E90000D2399430B3B08000C93CBE680230A00DB
:102EA000DB001A409146194200D162E10D23202037
:102EB0009943033308430C93BCE66123810600D594
:102EC00041230EA91F228C46DBB262440A3B1397B2
:102ED0001495814645460C9FB0461293160008E0B3
:102EE0003033DBB201343355BD420ED3202C0CD02D
:102EF00005003900280000F02BFACBB20929EFD9E0
:102F0000129A94466344DBB2ECE746464846139F68
:102F1000149DB2E66F2800D03CE10C2308009843D2
:102F200080230A00DB001A409146194200D02AE1B2
:102F300008230C937EE60A99FA3BFF3B073199433D
:102F400001339C468C4463464A680A930B6890465A
:102F50009C461343191E06D14B461031002488436A
:102F6000002B00D089E66121830600D541210EAAFD
:102F700091461F234B449946C9B20C9B0A391397BB
:102F80001495159645464E46002467469846814658
:102F900012910CE03032D2B2002301343255AB42F0
:102FA00000D1BCE0202C00D1BCE007000D0042465F
:102FB00000233800290000F009FAD2B2092AE9D921
:102FC000129B9C466244D2B2E6E74346002B00D0F7
:102FD00004E6E2E50A9C08CCDA0F1392002B00D13C
:102FE000A5E0D9175B184B4098460EAA91461F23BF
:102FF0004B440C95A14645461296E04606001C003F
:103000000A9701E0202E0FD028000A2100F0A0F935
:103010000136A7193031397028000A2100F098F9DB
:103020002F000500092FEDD8C4464C4630000A9FFA
:103030000C9D129E634606930B9B2A0004930A2361
:103040000393139B0190029316AB009351465B468A
:1030500009980597FEF716FE0A940500741CFFF701
:103060004EFB0A9B10CB1493002C04D110239843E1
:103070004B46002B2CD16123810600D541230EA99C
:103080001F228C46DBB262440A3B1297139581469D
:1030900045460C9FB0460A93160008E03033DBB279
:1030A00001357355BC420ED3202D0CD004003900DD
:1030B000200000F04DF9CBB20929EFD90A9A9446C5
:1030C0006344DBB2ECE748464646129FA846139D90
:1030D0000B9B2A0004930C9B0690039300230293FE
:1030E0004346019316AB009351465B4609980597FA
:1030F000FEF7C8FD149B05000A93741CFFF7FFFA46
:1031000003061FD50A9B02CB09040A0C90460A93BA
:10311000A8E50C2399430A3B08000C938AE5B845BF
:1031200000D83FE74846139F149D159EA5E54346EA
:10313000002B00D07EE758E708C9DA1798185040EE
:103140000A9124E50A9B04CB90460A938AE5010084
:1031500001310C9124E60A9F6C1C01CF2A005B46CA
:10316000099D5146C0B2A84725000A97741CFFF775
:10317000C6FA202319430C239943002399461033A0
:1031800008000C9356E508238C460C930D236046EB
:1031900098434FE510230A009A439446692808D1C2
:1031A00080230A00DB001A409046194200D1CEE489
:1031B000CAE41C230800984380230A00DB001A405D
:1031C0009146194202D10A230C9333E50A230C934A
:1031D000DCE7C0460CB430B585B008AC08CC064D71
:1031E0000A000094010028000394FFF761FA05B07B
:1031F00030BC08BC02B01847E91B001000B585B010
:103200000391012102900093034813004A4202A94E
:10321000FFF74EFA05B000BD891E00100FB430B59F
:103220000C4985B008AA08CA0D680392002D0CD07D
:1032300000920122084C5242200002A9A847012016
:1032400005B030BC08BC04B01847180001F0E4F821
:103250000020F5E7B4110020791E001010B5094ACE
:103260000300146884B0002C08D0012200910648A5
:10327000524203A9A047012004B010BD01F0CCF8D0
:103280000020F9E7B4110020791E00100148042144
:10329000014B184700030020BD320010142310B565
:1032A0000100188804331B88984710BD162310B5F9
:1032B0000100188802331B88984710BDF8B54746AF
:1032C000CE4680B50F1E19D014239946043304004E
:1032D0000025012698464B461888434621681B88DE
:1032E000984701C4431E9841013540420640AF4211
:1032F000F1D13000C0BCB946B046F8BD0126F8E7B0
:10330000124A936F9B0815D29066D166002905D0AA
:10331000FFE7FFE7FFE7516F106F704704B58021AB
:103320000906C2175140002800D0C84309F0B8FA76
:10333000002104BDF0B5146E556E576F166FFFF780
:10334000E3FF1466556657671667F0BD000000D0AE
:10335000114A936F9B0813D210665166002905D05D
:10336000FFE7FFE7FFE7516F106F704704B50028D4
:1033700001D00020C04309F093FA002104BDC046EB
:10338000F0B5146E556E576F166FFFF7E5FF1466B4
:10339000556657671667F0BD000000D094464A4A4C
:1033A000926F9208624601D228E0C046F0B5464EC0
:1033B000346E756E776F366F00F020F89446424A8F
:1033C00014665566576716676246F0BD94463E4AD6
:1033D000926F9208624601D254E0C046F0B53A4E70
:1033E000346E756E776F366F00F04CF89446364A3F
:1033F00014665566576716676246F0BD002B24DBDE
:1034000011D000293EDA00B5C943404200D1013154
:1034100000F038F8C943404200D10131DB43524249
:1034200000D1013300BD002AEBD1002801D10029D1
:1034300005D00020C90FC90701D1C043410800B51C
:1034400009F01EFA0022002300BD00B500290ADBA6
:10345000DB43524200D1013300F014F8C94340422B
:1034600000D1013100BDC943404200D10131DB43ED
:10347000524200D1013300F005F8DB43524200D143
:10348000013300BD002923D1002B18D1002A0CD014
:10349000BC460D4F38667A6600210023FFE7FFE740
:1034A000FFE77A6F386F67467047002801D00748FA
:1034B000010000B509F0E4F90022002300BD02007C
:1034C0000B00002000217047000000D0FFFFFFFF2D
:1034D000002B00D0BFE0130C28D1002AE7D080B425
:1034E000114F39667A66FFE7FFE730B4040C7B6F53
:1034F000396F1B0423433B667A66FFE7FFE7FFE76C
:10350000C04684B27B6F3D6F1B0423433B667A66E3
:10351000FFE7FFE7C04600232C042D0C7A6F386FBD
:1035200000196941B0BC7047000000D0F0B5944666
:103530000025140E01D112020835140F01D1120119
:103540000435940F01D192000235D40F01D15200FD
:103550000135D40B0134254F7C66254C3C660E0C9E
:1035600093B2FFE7FFE7FFE73C6F6643360C770354
:10357000BE467343DF0B5B04C01AB941130C73439F
:10358000DB18C91ACE086643360CB64493B27343AF
:103590001F0F1B01C01AB941130C73431F0B1B05EE
:1035A000C01AB941860D8F023E436643360C092D81
:1035B00024DB520A7243801A7703460A6643360CAC
:1035C00016235B1BDE40DF40BF1964466643821B47
:1035D0007046043506330100D940A840C01900D315
:1035E0000131A24206D20023F0BD0000000000D04D
:1035F000FFFFFFFF121B0130F3D3F1E709277F1B09
:10360000FE406446A2B27243801A00D20139220CF5
:103610007243130C1204821A99410B007046043550
:1036200013370100F940A840801900D30131002B65
:1036300002D1A2420AD2F0BD013000D30131121BE7
:10364000FAD2013BF8D1A24200D2F0BD013000D342
:103650000131121BF7E7F0B51C0C00D080E00CB470
:1036600000251C0A04D11B02160E33431202083532
:103670001C0B04D11B01160F3343120104359C0BA4
:1036800004D19B00960F334392000235DC0B02D12C
:1036900092185B4101351C00971864410134464F74
:1036A0007C66464C3C660E0CFFE7FFE7FFE7C04632
:1036B0003C6F6643360C7703BE4697B27743C01B18
:1036C00000D20139C01B00D201399FB27743C91B18
:1036D000C91B170C77437E04FF0B801BB941CE0832
:1036E0006643360C0C2D33DBB644120B1F053A43F0
:1036F0001B0B97B27743C01B00D201399FB27743AF
:10370000C91B170C77433E043F0C801BB941860D43
:103710008F023E43664329277F1BFE400C3D7746C0
:10372000AF40BF1930BCA2B2ABB272437343801A30
:103730009941220C7243130C1204801A9941020021
:103740000B000137001BA941F9D2781E0021F0BD02
:103750000C277F1BFE4077467F0BAF40FF19E0E749
:1037600000245D1C07D0144F7D663966FFE7FFE734
:10377000FFE7FFE73C6F95B29EB265436643401B8F
:10378000B141150C1E0C6543664336042F0C3E43B5
:103790002D04401BB141994204D202000B002000CD
:1037A0000021F0BD01D19042F7D3801A9941013434
:1037B0009942F2D3F6E70000000000D0FFFFFFFFC0
:1037C00048404140484018B41B4B5B68FC4601939D
:1037D00008BD04DF733A001018B4174B1B68FC4691
:1037E000019308BD00DF7D3A00109446134A926FA2
:1037F000920809D2624618B40F4BDB68FC4601936D
:1038000008BD0CDF353D00100C4AF0B5146E556E46
:10381000576F166F6246FFF7EEFF084A146655664B
:1038200057671667F0BD18B4034B9B68FC460193BD
:1038300008BD08DFD93B0010000C0020000000D0BC
:10384000FFB550404240504059404B40594000E085
:10385000FFB5154F4C00640D03D0BC4204D10C03DE
:1038600014D80020090D09055C00640D03D0BC428A
:1038700004D11C030AD800221B0D1B0501264B4056
:1038800009D44B4003D58B4200D18242FFBD9942FF
:10389000FCD19042FFBD0B43DB1803431343F5D02B
:1038A000C9434918FFBD0000FF07000000B5FFF73E
:1038B000CFFF01D0002000BD012000BD00B5FFF703
:1038C000C7FF804100BDC04600B5FFF7C1FF01D969
:1038D000002000BD012000BD00B5FFF7B1FF01D9F8
:1038E000002000BD012000BD00B5FFF7A9FF804109
:1038F00000BD012040054A00121804D85A001218D1
:1039000001D8002070470120704700207047000058
:103910000021002805D17047C1174840401AFAD04D
:10392000C90713B5064B1B6898470CBC441CA24042
:103930001005120B0349091B09051943114310BD5A
:10394000E41100201F04000010B54C00620D80231C
:10395000D218DB00D21A5B057E2A10DD9E3A13DAFC
:10396000CC170903490819435242D140640001347D
:103970001532202A05DAD0400843604310BD0020EC
:1039800010BD0846604310BDC80FC018013810BDF7
:1039900018B4044B5B6AFC46019308BD24DFE53E86
:1039A00000100000000C0020132370B51D78012DBD
:1039B00015D010DD1D48FFF779FC1D4C0100802259
:1039C000200000F047FC022D2DD01A48FFF766FCBE
:1039D000194B186070BD194B154CA364F5E7174BD4
:1039E000134C23606360A360E36023616361A361A0
:1039F000E36123626362A362E36223636363A3639D
:103A0000E36323646364A364E36423656365A3657C
:103A1000E36523666366A366E36623676367A3675C
:103A2000E367A364D1E7054BA364CEE753440000EA
:103A3000000C00204C330000E4110020413A00103B
:103A400007B5604601880A0A0230DF2AFAD1C9B2F6
:103A5000820804D3028840880004104300E0006814
:103A6000014A5050039007BD000C00200FB403BC66
:103A70000CBCF0B50124E407634000E0F0B50C0D88
:103A8000CF0F661E3605891B640503D3C943404228
:103A900000D30131640D03D0661CF60A07D0E41B85
:103AA00000207F00791C89078912803C24031D0DAA
:103AB000DF0F6E1E36059B1B6D0503D3DB435242A1
:103AC00000D301336D0D03D06E1CF60A07D0ED1B39
:103AD00000227F007B1C9B079B12803D2D032F1B28
:103AE000661B58D4A446202E46DA20371400BC406A
:103AF0001D00BD40F24033412A4380185941CB0F8D
:103B000005D0C943C043002264425041514162463E
:103B10004D0D28D10D0D07D100281FD0241940418B
:103B20004941013A0D0DF9D0640006D3013000D3AC
:103B30000131002C01D140084000013A0BD4941C03
:103B4000E40A04D112051144DB071944F0BDD9077A
:103B5000204B194300E0D9070020F0BD0029DDD13A
:103B6000002CDBD1F0BD0132C6074008CD07284349
:103B70004908002EE1D0D9E73C2E29DA203E403713
:103B80001400BC4000D00124F24014431A00BB4092
:103B90001C43D317ACE7AC46202F08DA20360400CC
:103BA000B4400D00B540F84039412843A5E73C2F0B
:103BB0000CDA203F40360400B44000D00124F84025
:103BC00004430800B1400C43C117EAE71000190094
:103BD000002494E70000F07FF0B50C0D661E36055A
:103BE000891BE60A6405640D02D0651CED0A04D049
:103BF000002001210905803C2403A4461C0D671EFA
:103C00003F05DB1BE70A6405640D02D0651CED0A65
:103C100004D0002201231B05803C24037740644428
:103C200097B484B296B27443070C7E43150C6F436D
:103C300080B26843361802D3012000043F183004D4
:103C4000350C00197D41844688B29AB250430C0C61
:103C500062431F0C7C438EB27E43921902D301262D
:103C60003604A4191604170C3618674101BC81B23A
:103C70009AB25143040C62431B0C5C4380B258431C
:103C8000121802D30120000424181004130C401849
:103C900063412D185E410020474106BC88B293B2B3
:103CA00058430C0C6343120C544389B251435B18C4
:103CB00002D301210904641819041A0C091862417D
:103CC0006D1856410020474118BCF902720D11438E
:103CD000F0026A0D1043ED020A0D03D16D19404147
:103CE0004941013B124E9B1B7600B3420ED26D0040
:103CF00007D30130002671416646354301D14008A3
:103D000040001B05C918E4072144F0BD0BDA01335C
:103D100006D1013004D101314F0D01D04908F2E73D
:103D2000E1070020F0BD013631050020EBE700007F
:103D3000FF030000F0B51C0D671E3F05DB1BE70A03
:103D40006405640D02D0661CF60A04D0002201232B
:103D50001B05803C2403D0252D060026F6432E6645
:103D60001E096E66CE0FF619B44649004F0D02D0FB
:103D70007E1CF60A03D000200021403F3F033E1B7B
:103D8000B600B444013F7F05C91B49082E6F0136B8
:103D900076089C02950D25437543ED137543AD13CD
:103DA00001356D10F603761B0CB4CC02450D2C4387
:103DB000A2B2B3B25A43270C7B43350C6F43A4B273
:103DC0006C431B1902D3012424043F191C041D0C4D
:103DD000A4187D4124196D41009A91B2ACB261439F
:103DE000170C7C432B0C5F4392B25A43A41802D3A6
:103DF00001221204BF182204230C52187B41019C9B
:103E00006C431B19520ED9010A434401A01A81B216
:103E1000B2B2514303145A43360C734387B277430B
:103E2000D617D21900277E4136049B191704160CA9
:103E30007F185E417316ED18F3010026803375413B
:103E4000A90F06D16400690AE8055B0A184309D284
:103E50002FE00422944480337541A90AA8059B0AE7
:103E6000184326D3404149412404009A019B0D0088
:103E70005543641B4343E41A95B286B27543170C4D
:103E80007E43030C5F4392B25A43B61802D3012219
:103E90001204BF183204330C52197B4152429C4128
:103EA000002C02D40022013051414008CA071043BF
:103EB000490802B06246D7079210084BD218084B47
:103EC0009A4203D212058918C919F0BD0020002AB0
:103ED00001DC3900F0BD01331905F5E7FD030000F1
:103EE000FE070000002200B5203200F004F80800B0
:103EF00000BD000000220B150AD410B5944600F056
:103F000031F81414013400DA0021CB17144C204787
:103F10000020002170476244343A0CD40C2A07DA9E
:103F200004009140904052422032D440214310BDC1
:103F3000D843D94310BD203207D40C469440524296
:103F400020321141D040204310BD0800C917203253
:103F500003D452422032104110BD1800190010BD88
:103F6000173F00100A0DCC0F531E1B05C91A52052E
:103F700003D3C943404200D30131520D03D0531C37
:103F8000DB0A07D0121B00206400611C890789121C
:103F9000803A1203014BD21A70470000FF03000061
:103FA00051434343C9188C46110C83B24B4310B4A0
:103FB000040C614392B280B2504362431C041B0C58
:103FC000001910BC59411304120CC018514161442E
:103FD000704700004840414048400E4B5B6818471E
:103FE0000C4B1B6818470C4A936F9B0802D2094B75
:103FF000DB681847F0B5146E556E576F166FFFF7F4
:10400000F6FF054A1466556657671667F0BD014B03
:104010009B681847000D0020000000D007B54840FD
:104020004140484001E0C04607B54200120E03D0AF
:10403000FF2A03D1420218D8C00DC0054A00120E53
:1040400003D0FF2A03D14A020FD8C90DC9050122A6
:10405000414005D4414001D5814207BD884207BD9A
:104060000143491801D0C043001807BD00B5FFF750
:10407000D5FF01D9002000BD012000BD491A00284C
:1040800008D1084670470000C10FC90700D540425B
:10409000002817D0F44603B40B4B1B68984706BCA6
:1040A00081409E384042803107D20B0607D049003C
:1040B000490AC0051043084360470130F8E7490A40
:1040C0008902F5E770470000E4110020132310B5C2
:1040D00012481C78FFF7EAF80100012C0AD003DD32
:1040E00080220F4800F0B6F80E48FFF7D7F80E4BC5
:1040F000186010BD0A4C5422200000F0ABF80B4BA6
:104100006365A365E36523666366A366E366236769
:104110006367A367E3672362E361E5E75346000053
:10412000000D00204C330000E4110020314100104C
:1041300007B5604601880A0A0230DF2AFAD1C9B2FF
:10414000820804D3028840880004104300E000681D
:10415000014A5050039007BD000D002070B50400C7
:104160000A4E300008F0ACFB200002F009FE05000A
:10417000300008F07DFB002D05D0054B2C199C422A
:1041800001D8280070BD0348FDF710FD0C0A00207F
:1041900000000420A0CB001070B505000C000B4EF1
:1041A000300008F08DFB2800210002F089FD050099
:1041B000300008F05DFB002D05D0054B2C199C420A
:1041C00001D8280070BD0348FDF7F0FC0C0A002060
:1041D00000000420A0CB001070B505000C000B4EB1
:1041E000300008F06DFB2800210005F049F80500BB
:1041F000300008F03DFB002D05D0054B2C199C42EA
:1042000001D8280070BD0348FDF7D0FC0C0A00203F
:1042100000000420A0CB001070B50400054D28005C
:1042200008F04EFB200002F0B5FD280008F020FB4E
:1042300070BDC0460C0A002001480421014B1847FC
:1042400010030020BD320010014B1B68184700000E
:1042500010030020014B5B6818470000100300208A
:10426000F0B546464F46D646C0B5437D80460E0063
:104270001700002B4BD0002A32DD274B01259A4630
:104280004B1E00240020994607E0335D0A2B2CD0FA
:104290002B0001340135BB4213DA002CF5D1337801
:1042A0000A2BF5D143461B7D002BF1D143465046E6
:1042B00002211B68984728002B0001340135BB42BE
:1042C000EBDB874204DD4346391A1B6830189847F8
:1042D000F619013E33780D3B5A425341424613755D
:1042E000E0BCBA46B146A846F0BD4B461B5D0D2B5F
:1042F000CED0A042DADA4346211A1B68301898471C
:104300004346504602211B6898472800D4E70368BB
:10431000110030009847E3E714CC0010F0B5C64612
:104320000B6806000C0000B5802B06D05A1C2260DA
:10433000E418267180BCB846F0BD0F4B1D68002DF7
:1043400016D00B1D98460D4F02E02D69002D0FD0A1
:104350002B68002BF9D03B68002B01D0AB42F4D185
:10436000280041462268FFF77BFF2D69002DEFD121
:1043700001220023DBE7C046A4110020AC1100207D
:10438000F0B5CE46474680B583B06B460600DD1DCE
:104390002870FCF72DFE00231A4A12184B41802189
:1043A00009068B4202D30122174B524217490800DB
:1043B000884608F07DFA164B81461C68002C14D004
:1043C000144F02E02469002C0FD02368002BF9D091
:1043D0003B68002B01D0A342F4D120000122290028
:1043E000FFF73EFF2469002CEFD14B46002B05D18F
:1043F000300003B0C0BCB946B046F0BD404608F03E
:1044000037FAF5E740420F00FFFFFF7F140A002054
:10441000A4110020AC110020F0B5DE4657464E46F0
:104420004546E0B585B0070005F094FF0600FCF7AF
:10443000DFFD00232B4A12184B41802109068B42D5
:1044400002D30122284B5242284908008B4608F02B
:104450002FFA274B01901C689A46002C3BD0254B25
:10446000984602ABDD1D0A23994602E02469002C20
:1044700017D02368002BF9D043461B68002B01D0CE
:10448000A342F3D1200032003900FFF7E9FE4B468A
:104490002000012229002B70FFF7E2FE2469002C86
:1044A000E7D1019B002B18D153461C68002C06D085
:1044B0006368002B0BD098472469002CF8D130009A
:1044C00005B0F0BCBB46B246A946A046F0BD246983
:1044D000002CEDD1F3E70028F1D0584608F0C8F9D8
:1044E000E2E7C04640420F00FFFFFF7F140A0020B2
:1044F000A4110020AC110020F8B557464E46DE4608
:104500004546E0B50E00170000282CD11B4B1C4D72
:104510001A685B6893469A461A4B99461A4B984616
:104520004B461C68002C03D115E02469002C12D0E6
:104530002B68002B01D0A342F7D1A368002BF4D045
:104540003900300098470028EFDDF0BCBB46B2468A
:10455000A946A046F8BD43465B6A9A4508D842463C
:10456000926A5A4502D301204042EEE79A45FAD1B9
:1045700001200021FCF746FDD2E7C04610C900101B
:10458000AC110020A411002000400540F0B54646C3
:10459000D6464F4601380D009046C0B5012841D897
:1045A000FCF726FD0023214A12184B418021090601
:1045B0008B422FD21E49474608008A4608F078F9F8
:1045C00043468146013303D1280005F0C3FE0700AE
:1045D000184B1C68002C14D0174E02E02469002CE4
:1045E0000FD02368002BF9D03368002B01D0A342F1
:1045F000F4D120003A002900FFF732FE2469002C94
:10460000EFD14B46002B09D14046E0BCBA46B1463B
:10461000A846F0BD0122094B5242CBE7504608F0B4
:1046200027F9F1E701204042EFE7C04640420F0082
:10463000140A0020A4110020AC110020FFFFFF7F0E
:10464000012040427047C046012040427047C046AA
:10465000012040427047C0460300022200209A42D7
:10466000404170470A4A1368002B05D10CE01A003C
:104670001B691032002B07D09842F8D1002902D1D3
:1046800003691360016170470029FCD01060FAE7EC
:10469000A4110020F0B5CE46474680B5A3B0040073
:1046A0000D00FCF7A5FC0023294A12184B4180217C
:1046B00009068B4202D30122264B5242264F380074
:1046C00008F0F6F800230600019322002B0023488F
:1046D00001A9FEF793FD019B8046002B14D1204BCE
:1046E0001C68002C06D06368002B0BD09847246907
:1046F000002CF8D1002E25D1404623B0C0BCB946CD
:10470000B046F0BD2469ECE7154B1D689946002DB5
:104710001CD0144C02E02D69002D0FD02B68002B0B
:10472000F9D02368002B01D0AB42F4D12800019AC4
:1047300002A9FFF795FD2D69002DEFD14B4601959C
:104740001C68CEE7380008F093F8D5E70195D1E76B
:1047500040420F00FFFFFF7F140A00201D4300109E
:10476000A4110020AC1100200FB400B583B004A93F
:1047700001C90191FFF78EFF03B008BC04B01847D0
:1047800010B500F0CFF8012010BDC046F0B50029EB
:1047900015DD0E4B0D271A680D4B0E4CD3185D42DC
:1047A0006B41451820215B001E5F0478A64207D0AC
:1047B00093691942FCD101301460A842F5D1F0BDD3
:1047C00093691942FCD11760F2E7C046001200203D
:1047D0000080FCBFFC11002030B504000D1E30DD50
:1047E00000201021204B013C1A689369194217D10F
:1047F000013093691942FCD1136823548542F4D1E6
:104800001A4B1B68002B09D0502338219363536B3C
:104810003432194080235B011343196028000FE0F4
:10482000124B1B68002B09D0502338219363536B24
:104830003432194080235B011A431160002810D0E4
:1048400030BD0A4B1B68002B0BD050223821064B81
:104850001B689A635A6B3433114080225201134310
:10486000196003204042EBE70012002050110020A5
:10487000064B10B51B68002B06D00021044A1268B5
:104880009163044A1068984710BDC046501100203B
:1048900000120020541100201D4BF0B51A68C646C6
:1048A00098461C4B0E00D31859424B411A4F1433F3
:1048B0001C00050000B53B68002807D0002B11D074
:1048C000164B3D601E6080BCB846F0BD002BF7D093
:1048D000906300212000FBF751FE20001049FBF7F8
:1048E00091FEEDE720000E49FBF762FE012120005A
:1048F000FBF744FE4346502238211B689A635A6BEB
:10490000343311408022520113431960D8E7C04666
:10491000001200200080FCBF501100205411002024
:104920007148001010B50C4B0C4C1B780C4B02213D
:104930001B780C4B00202360FBF764FD0221012053
:10494000FBF760FDE12120684902FCF73BFE0121F5
:104950000548FFF787FE10BD10DB00100012002095
:104960000CDB001000400340200300208022054B98
:10497000520205491A600B681342FCD0034B1A60BF
:104980007047C0460420014004000140043001404B
:1049900084B0059B0292049A8B4212DC0FD099429C
:1049A0000BDC08D0029B069883420AD398428041D0
:1049B000404204B070479042F4D90120F9E78242A6
:1049C000EDD901204042F4E7C16880687047C046D5
:1049D000034BC16880681A685B68801A9941704708
:1049E0004003002010B5124C200002F0F1F800281E
:1049F00019D1226863680F490F4C0868496812187A
:104A00004B410E490868496812184B41616820689B
:104A10008B4203DC00D010BD8242FCD9100019008B
:104A200022606360F7E7064801F0F4FEE1E7C04664
:104A300038030020400A0020380A0020480A0020DD
:104A400058CC001010B5144C200002F0C1F800281A
:104A50001ED1226863681149114C08684968121810
:104A60004B4110490868496812184B412068616839
:104A70008B4208DC05D00C4B1A685B68801A9941A0
:104A800010BD8242F7D91000190022606360F2E77E
:104A9000064801F0BFFEDCE738030020400A002092
:104AA000380A0020480A00204003002058CC00109B
:104AB000F0B54E464546DE465746E0B51D001300AC
:104AC0000400160093B02B4300D1C1E0002D00DAA2
:104AD000ABE00492FA2200233000290092000595F1
:104AE000FEF75CFC80460F00002D00DCC3E0069062
:104AF00007910023300029007A4AFEF74FFC8246D6
:104B00008946002D00DCAAE0534608934B4630004E
:104B1000099329000023744AFEF740FC80460F00E9
:104B2000002D00DCB3E00A900B91E823300029004F
:104B30006E4AFEF733FC82468946E82D00DCB1E080
:104B400053460C934B4630000D932900684B694A3D
:104B5000FEF724FC664B834603919D4200DCAAE0ED
:104B60005B460E93039B30000F932900624B634A10
:104B7000FEF714FC604B80460F009D4200DCA5E070
:104B8000062507261090119103239946013B9B4669
:104B9000013B9A46023EFA22404639000023920029
:104BA000FEF7FCFB56499046009220000A00019354
:104BB00005211F00FEF70EFB002F0BDC07D003DCE6
:104BC00056D14346092B53D9D946023403E0434614
:104BD000632BF6D90334002D1FDDF30004AAD5188A
:104BE000484B3700984628686968FA2200239200EB
:104BF000FEF7D4FB20000092019308214246FEF705
:104C0000E9FA04343B00083D013F002BEBDCF343A1
:104C1000DB171E400136B600B144484613B0F0BC65
:104C2000BB46B246A946A046F0BD02223649FFF770
:104C300011FB029B02269846042301259946013B5D
:104C40009B46013B9A46039F013476426D42A2E7A0
:104C500002222E49FFF7FEFA01239946DDE7002DD7
:104C600003D12B4B9E4200D94EE7012502268BE74C
:104C7000D1460134AFE7002D04D1FA239B009E42B8
:104C800000D334E7B0462F00012600257CE7002D35
:104C900003D1204B9E4200D945E7D0464F4602251E
:104CA000032671E7E82D03D11B4B9E4200D947E74D
:104CB0000325042668E79D4203D1184B9E4200D984
:104CC0004EE7D0464F46042505265DE79D4203D1B9
:104CD000134B9E4200D953E7D84605250626039F6D
:104CE00052E7C04640420F0000CA9A3B0010A5D4CC
:104CF0007E8D03000080C6A4B3B6E00D000064A75B
:104D000080CC001088CC00107CCC0010CCCB0010E4
:104D10003F420F00FFC99A3BFF0FA5D4FF7FC6A4F7
:104D2000FFFF63A7010070B50120FFF735FA051EEC
:104D30000CD008210120FFF72FFA041E0AD0074BE0
:104D400028001A6825601C60626070BD044801F08C
:104D5000E9FDEEE7024801F0E5FDF0E7281100204B
:104D600090CC001082B010B5183084B001000692CB
:104D70000400102268460793FFF76CFA069807991B
:104D8000089A099BFFF704FE002804DA102220008D
:104D900006A9FFF75FFA04B010BC08BC02B01847C0
:104DA000F8B5050000F0E0FF296CAA6BEB6B8A42B6
:104DB00001DA11006B6B002906DD0020890059180B
:104DC00004CB10709942FBD16B6C002B18D02E00D5
:104DD000443630000024002701F0B4FA84420FD298
:104DE0002100300001F088FA002803D00368002B6E
:104DF00000D01F603000013401F0A4FA8442EFD3E8
:104E000000232B64F8BDC046010082B000B585B018
:104E100006926846102218310793FFF71BFA099B88
:104E200006980799089AFFF7B3FDC317181AC00F21
:104E300005B008BC02B01847F8B54746CE4680B565
:104E40000E6A4F6A330080460D003B4314D18B69D4
:104E5000002B0CDD00246B69A200D15801224046D2
:104E6000524201F0B5F8AB690134A342F3DCAE6AFB
:104E7000EF6A33003B4312D04346D86A01F0DCFBB3
:104E8000041E10D04046A560FFF79EFD43468019E2
:104E90007941206061602100986A01F0ABFBC0BCE1
:104EA000B946B046F8BD20210120FFF775F9041E70
:104EB000E8D1024801F036FDA560FFDE90CC00107D
:104EC000026E70B50500002A0CDD0024E86DA30019
:104ED000C158002907D02800FFF7AEFF2A6E013421
:104EE0009442F3DB70BD01349442F0DBFAE7C04634
:104EF00070B50500806E0024002803DC13E0013447
:104F0000844210DA6B6EA200D1580029F7D00B6EE4
:104F1000002BF4D101222800524201F059F8A86E6A
:104F200001348442EEDB70BD70B50500006F0024D3
:104F3000002803DC13E00134844210DAEB6EA20097
:104F4000D1580029F7D00B6E002BF4D10122280094
:104F5000524201F03DF8286F01348442EEDB70BD0F
:104F6000F0B5DE464E465746454688460100E0B558
:104F70008FB08146083116000AA810221F00FFF7E3
:104F800069F918234B441900102268469B46FFF725
:104F900061F90A980B990C9A0D9BFFF7F9FC002810
:104FA00000DDC7E0002F00DACFE0189B002B03D014
:104FB0001A00DB680133D3604346002B00D1F2E0D6
:104FC0001B7F002B5DD04B469C68DD6843469A6A88
:104FD000DB6A049205934B46D86A01F02DFB8246AA
:104FE000002800D1D0E00023524693615346189A1E
:104FF0001A6142469A603023D35C002B47D1434666
:10500000A4197D415E6BDB6A002B4BDB43461B7FA3
:10501000002B00D077E0002E00D174E0306871687A
:10502000049A059B12184B41069007910892099328
:105030009D4268DC65D038214346595C012900D186
:10504000D4E0022900D1C3E04B469968069B9942FF
:1050500000D0C8E04B46DA68079B9A4200D0C2E015
:105060004B463100986A01F0BFFA002800D1BAE03F
:10507000306871684B461B690A900B9101330C93A1
:1050800028E043461A6A5B6AB6185F419BE7FFF760
:10509000A9FC4346801979415E6BDB6A04000D0070
:1050A000002BB3DA53461C605D604B465146986A4C
:1050B00001F09AFA061E26D08369002B00D1ACE0DD
:1050C00002221E009B6911000132002BF9D10A94C3
:1050D0000B950C91102259466846FFF7BBF80A98C9
:1050E0000B990C9A0D9BFFF753FC00283CDC5346B0
:1050F000B36100200FB0F0BCBB46B246A946A04643
:10510000F0BD944297D953461C605D604B46DB6905
:10511000AB4226DB21D0434652465A634B465146AA
:10512000986A01F067FA4B46986D431C09D44A46C9
:105130009365DFE7189800F0FFFD3E4801F0AEFBF5
:10514000D7E701234A469365D4E732003B003A484B
:1051500001F0A4FB0026002727E74B469B69A342EA
:10516000D9D2189800F0E8FD5146002200230A60C9
:105170004B6000238B60CB600B610B758B614B46E2
:10518000D86A01F037FAB4E720210120FFF704F8CC
:1051900082460690002800D025E7284801F0C2FB8F
:1051A000069B9B61FFDE189800F0C6FDA1E7049BFB
:1051B000059C002C01D1002B1BD14B463100986A75
:1051C00001F012FA002814D133687468069307942A
:1051D0004B46D9689868069B079C8C4214DC10D01B
:1051E000069B98421BD0089C099D8CE7059B002BD1
:1051F000DDDD3369189A9342B6D0100000F09CFDB3
:10520000B2E7069B8342EBD93069189B834201D0F9
:1052100000F092FD189B3361A6E7012157E7079B39
:105220009942E0D14B463100986A01F0DDF900283F
:10523000EAD1D8E7A0CC0010C8CC001090CC001068
:10524000F0B54646D6464F46C0B5060082B0806AE5
:1052500001F006FA00285DD039239A46383B99467A
:1052600018E0A169002902D0306B01F0C3F90022D7
:1052700000232260636000232100F06AA360E360E2
:1052800023612375A36101F0B5F9B06A01F0E8F973
:1052900000283FD00268B3689A423BD14268F36865
:1052A0009A4237D1B06A01F0C7F9037D0400002BA0
:1052B000D7D10369806898468269002A0CDD43696A
:1052C00000259C4638276146AB00C958CB5D002BB2
:1052D0002BD001359542F6DB53464A46C254037F34
:1052E000002B04D0C36A826A002B2DDC2AD04146F1
:1052F00000F000FD404600F01FFD52464946A368FD
:105300009954AEE7306BB46A01F096F901002000C1
:1053100001F070F9306B01F0A3F90028F2D102B06E
:10532000E0BCBA46B146A846F0BD01223000524268
:1053300000F04EFEA068013582699542CCDA4369DF
:105340009C46C0E7002AD2D0002100910100300025
:10535000FFF706FEA068CAE7C16810B584688B42F3
:105360000ADC07D094420CD199420AD10369013377
:10537000036105E0A242F5D9C360002382600361A6
:1053800010BD024801F0CEFAFAE7C04610CD001079
:10539000486810B50C000B684160984700226368AC
:1053A0005A6010BDF0B5DE4657464E46454654237A
:1053B000E0B5CB5C81468B46924685B0002B73D11D
:1053C0008A6A002A70D000270024390002E00134E4
:1053D000944255D25B46DB6AA0001B58002BF6D0E6
:1053E0001B78002BF3D05B465B6B1B5898465B46E3
:1053F0001B6B1D58002DEADD4246002301920394E9
:105400001A00029002E00132AA4233DA01989300B6
:10541000C658002EF7D0B369002BF4DD0024904667
:105420000FE0002903D05246484600F0D1FD290084
:105430005246484600F0CCFD0021B36901349C423D
:1054400010DA7269A0008558002DF7D08D42F5D092
:105450000137012FE5D16A6A5A45E2D101342900AA
:105460009C42EEDB5B4642461B6B029801321D58A4
:10547000AA42CBDB5B46039C9A6A01349442A9D3CF
:105480000F1E11D04B6C002B15DA78683B68476013
:10549000984700227B6839005A6048465246FFF719
:1054A00081FF48230022FA5405B0F0BCBB46B24647
:1054B000A946A046F0BDFFF795FA3C6C7D6C230031
:1054C0002B4306D04B469A68DB6812196B41994210
:1054D0000ADDFB6C002BE4D078689847524639000F
:1054E0004846FFF75FFFDCE79942CED19042CCD926
:1054F000EFE7C046F8B505001B480E00FEF78CFF2D
:105500001A48FEF789FF1A48FEF786FF1948FEF78A
:1055100083FF1948FEF780FF1848FEF77DFF184803
:10552000FEF77AFF1748FEF777FF1748FEF774FF7C
:105530001648FEF771FF1648FEF76EFF1548FEF796
:105540006BFF1548FEF768FF002D09DD0024134F9F
:10555000A3003800F1580134FFF706F9A542F7D14E
:105560000F48FEF759FFF8BD50CD00106CCD00106C
:1055700088CD0010C8CD0010ECCD001038CE001042
:1055800088CE00109CCE0010E8CE0010FCCE00109B
:1055900038CF001048CF001084CF001094CF0010F7
:1055A00080CF0010F0B5DE4657464E464546E0B582
:1055B000012489B0012824DD80460D00BF4B0093F3
:1055C000BF4B0193A600AF59631C9A463B7899469E
:1055D0002D2B1ED17B78662B1BD1BB78002B18D1CD
:1055E000D04500DCDCE0AE1976680099300004F0AC
:1055F00025FE00284ED10122B24B1A7002344445D8
:10560000E0DB012009B0F0BCBB46B246A946A0468B
:10561000F0BD3800AC4904F011FE0028E0D04B4644
:105620002D2B40D17B786F2B3DD1BB78002B3AD10D
:10563000A31C434500DBF1E0AE1973689B46B368D9
:105640005846994604F046FE06000F009F4B9A46C6
:105650001E605F6003000B4304D15B461B78302B58
:1056600000D0F5E04B461B789B46732B44D14B464C
:105670005B78652B40D14B469B78632B3CD1944A99
:10568000002330003900FEF78BFC53461860596048
:105690000334B4E73000019904F0D0FD002826D18E
:1056A000884B1870AAE738008A4904F0C7FD002823
:1056B000BED03800884904F0C1FD0028B8D04B4660
:1056C0002D2B66D03800854904F0B8FD00287CD128
:1056D000D04500DCE5E0AE1976687849300004F08A
:1056E000ADFD002868D101227D4B1A7086E731009C
:1056F0007C4801F08FF881E7042248467A4904F09B
:10570000DFFC002826D1F30E7A011A4373010392BD
:105710000293029A039B921BBB41D10D580208438E
:10572000530205900493049A059B92197B41910EB4
:105730009801084391010790069106980799801AED
:1057400099410B000200514692197B4103340A60D3
:105750004B6054E704224846644904F0B1FC002839
:1057600002D1FA2292008BE704224846604904F0F5
:10577000A7FC00288CD05B466D2B40D14B465B7854
:10578000692B3CD14B469B786E2B38D10D23594A5F
:1057900077E77B786B2B95D1BB78002B98D091E77E
:1057A0002B0045469846544801F034F828004146FD
:1057B000FFF7A0FE002025E73000414904F03EFD40
:1057C000002826D1464B187018E74B462D2B02D1E6
:1057D0007B78772B51D03800484904F02FFD002802
:1057E00043D1D04500DCA9E0AE1976680234300020
:1057F00001F060FA00284EDD414B1860FFE60422FC
:105800004846404904F05CFC002813D13E4A3F4B17
:1058100037E731003E4800F0FDFFEFE62B0045463C
:1058200098463C4800F0F6FF28004146FFF762FE2C
:105830000020E7E65B46642B23D14B465B78612B67
:105840001FD14B469B78792B1BD1334A334B18E73A
:105850002B00454698465946314800F0DBFF2800AA
:105860004146FFF747FE0020CCE638002D4904F002
:10587000E5FC00286ED15446C1E6BB78002BB0D0C1
:10588000A9E704224846284904F01AFC00286ED1F2
:10589000264A274BF5E62748310000F0BBFF0120E0
:1058A000AAE72B0045469846234800F0B3FF28009E
:1058B0004146FFF71FFE0020A4E6C046B8CF001007
:1058C000C0CF00100612002098CF0010480300201F
:1058D00000CA9A3BE8CF0010F4CF001078D0001037
:1058E00008120020C8CF001038D0001040D000109F
:1058F00048D00010005847F8A0CF0010C8D00010C2
:105900002411002050D0001000A0B8304603000041
:10591000A4D0001000D0001000004F91944E000061
:1059200020D0001028D1001058D00010000029F914
:105930000F260200FCD0001084D000102B0045463A
:105940009846114800F066FF28004146FFF7D2FD57
:10595000002057E62B004546984639000B4800F0DA
:1059600059FF28004146FFF7C5FD00204AE62B00FD
:10597000454698464946064800F04CFF28004146F7
:10598000FFF7B8FD00203DE6D4D0001034D1001060
:1059900060D00010002200B5054B83B01A60054BA3
:1059A00001A81A60FAF7FAFCFAF7FEFC03B000BD92
:1059B0001011002014110020F0B5CE46474680B5E6
:1059C0008BB001A8FAF7EAFC05000198FAF718FD78
:1059D000002D29DD4E4B002498464E4B4E4E9946E5
:1059E0004E4F019B3000596800F0D0FE01980378BB
:1059F000002B67D0FFF7D4F90198836A002B05D0FC
:105A0000180000F0E9FD002844D10198FEF7E0FFFE
:105A100002000B1E5BDA019800F0F4F9019B883359
:105A200001930134A542DCD100F0F4F83C4C23682A
:105A3000002B06DD3B4800F031FF21683A4800F0BA
:105A40002DFF3A4C2368002B06DD394800F026FF75
:105A50002168384800F022FF374F3D68002D50D0B4
:105A60002E68002E0BD03468002C08D02068FEF77A
:105A7000D3FB20006468FEF7CFFB002CF6D130008A
:105A8000FEF7CAFB6C682800FEF7C6FB002C38D076
:105A90002500E5E7019B986A00F09EFD274B010079
:105AA000180000F0FBFE019B986A00F0D9FD1B492D
:105AB0000268436808684968121A8B41204800F060
:105AC000EDFEA2E741681F4800F0E8FEA9E702A842
:105AD000FEF7EEFF404602A9FEF746FE7B68002B6C
